:020000040000FA
:1000000001288312850186018316051485140515C0
:10001000861383121D28A63091000000910B0D2835
:100020000800023090008F018E0100008E0B152811
:100030008F0B1428900B13280800051C2028232858
:10004000851C29282C28851C26282F28051D412899
:100050006E28051D1D285F28051D50281D28051D1B
:1000600032281D280830920086170B200B200B2009
:100070000B2086130B200B200B200B20920B342817
:100080007D280430920086170B200B200B200B20BC
:1000900086130B200B200B200B20920B43287D286E
:1000A0000630920086170B200B200B200B208613A6
:1000B0000B200B200B200B20920B52287D280A309E
:1000C000920086170B200B200B200B2086130B2091
:1000D0000B200B200B20920B61287D280F30920003
:1000E00086170B200B200B200B2086130B200B20D8
:1000F0000B200B20920B70287D28112011201D2829
:02400E00F13F80
:00000001FF
