:020000040000FA
:020000000E28C8
:080008008C00030E8D008F0A2D
:100010008B100D0E83008C0E0C0E090083128501CF
:1000200086018316051085100511061483128B01B5
:100030000B168F012128FA308E0000008E0B1D2830
:10004000080085018B1700308F000F1828282528FD
:100050001B201B201B201B201B201B201B201B20C8
:100060001B201B201B201B201B201B201B201B20B8
:100070001B201B201B201B201B201B201B201B20A8
:100080001B201B201B201B201B201B201B201B2098
:100090001B201B201B201B201B201B201B201B2088
:1000A0001B201B201B201B201B201B201B201B2078
:1000B0001B201B201B205C288B1303308F028F0B0F
:1000C000702862280530900005140000000085109B
:1000D00000000000051100000000900B642821289A
:1000E00001308F028F0B8328752805309000051092
:1000F0000000000085140000000005110000000051
:10010000900B7728212801308F028F0B96288828A2
:100110000530900005140000000085140000000068
:10012000051100000000900B8A28212801308F0261
:100130008F0BA9289B2805309000051000000000B7
:10014000851000000000051500000000900B9D28A0
:10015000212805308F020F182128AE280514000031
:1001600000008510000000000515000000001B20A5
:040170001B20212807
:02400E00F93F78
:00000001FF
